{
  "_format": "hh-sol-artifact-1",
  "contractName": "CharacterNFT",
  "sourceName": "contracts/CharacterNFT.sol",
  "abi": [
    {
      "inputs": [],
      "stateMutability": "nonpayable",
      "type": "constructor"
    },
    {
      "inputs": [
        {
          "internalType": "address",
          "name": "sender",
          "type": "address"
        },
        {
          "internalType": "uint256",
          "name": "tokenId",
          "type": "uint256"
        },
        {
          "internalType": "address",
          "name": "owner",
          "type": "address"
        }
      ],
      "name": "ERC721IncorrectOwner",
      "type": "error"
    },
    {
      "inputs": [
        {
          "internalType": "address",
          "name": "operator",
          "type": "address"
        },
        {
          "internalType": "uint256",
          "name": "tokenId",
          "type": "uint256"
        }
      ],
      "name": "ERC721InsufficientApproval",
      "type": "error"
    },
    {
      "inputs": [
        {
          "internalType": "address",
          "name": "approver",
          "type": "address"
        }
      ],
      "name": "ERC721InvalidApprover",
      "type": "error"
    },
    {
      "inputs": [
        {
          "internalType": "address",
          "name": "operator",
          "type": "address"
        }
      ],
      "name": "ERC721InvalidOperator",
      "type": "error"
    },
    {
      "inputs": [
        {
          "internalType": "address",
          "name": "owner",
          "type": "address"
        }
      ],
      "name": "ERC721InvalidOwner",
      "type": "error"
    },
    {
      "inputs": [
        {
          "internalType": "address",
          "name": "receiver",
          "type": "address"
        }
      ],
      "name": "ERC721InvalidReceiver",
      "type": "error"
    },
    {
      "inputs": [
        {
          "internalType": "address",
          "name": "sender",
          "type": "address"
        }
      ],
      "name": "ERC721InvalidSender",
      "type": "error"
    },
    {
      "inputs": [
        {
          "internalType": "uint256",
          "name": "tokenId",
          "type": "uint256"
        }
      ],
      "name": "ERC721NonexistentToken",
      "type": "error"
    },
    {
      "anonymous": false,
      "inputs": [
        {
          "indexed": true,
          "internalType": "address",
          "name": "owner",
          "type": "address"
        },
        {
          "indexed": true,
          "internalType": "address",
          "name": "approved",
          "type": "address"
        },
        {
          "indexed": true,
          "internalType": "uint256",
          "name": "tokenId",
          "type": "uint256"
        }
      ],
      "name": "Approval",
      "type": "event"
    },
    {
      "anonymous": false,
      "inputs": [
        {
          "indexed": true,
          "internalType": "address",
          "name": "owner",
          "type": "address"
        },
        {
          "indexed": true,
          "internalType": "address",
          "name": "operator",
          "type": "address"
        },
        {
          "indexed": false,
          "internalType": "bool",
          "name": "approved",
          "type": "bool"
        }
      ],
      "name": "ApprovalForAll",
      "type": "event"
    },
    {
      "anonymous": false,
      "inputs": [
        {
          "indexed": false,
          "internalType": "uint256",
          "name": "_fromTokenId",
          "type": "uint256"
        },
        {
          "indexed": false,
          "internalType": "uint256",
          "name": "_toTokenId",
          "type": "uint256"
        }
      ],
      "name": "BatchMetadataUpdate",
      "type": "event"
    },
    {
      "anonymous": false,
      "inputs": [
        {
          "indexed": true,
          "internalType": "address",
          "name": "previousManager",
          "type": "address"
        },
        {
          "indexed": true,
          "internalType": "address",
          "name": "newManager",
          "type": "address"
        }
      ],
      "name": "GameManagerUpdated",
      "type": "event"
    },
    {
      "anonymous": false,
      "inputs": [
        {
          "indexed": false,
          "internalType": "uint256",
          "name": "_tokenId",
          "type": "uint256"
        }
      ],
      "name": "MetadataUpdate",
      "type": "event"
    },
    {
      "anonymous": false,
      "inputs": [
        {
          "indexed": true,
          "internalType": "address",
          "name": "from",
          "type": "address"
        },
        {
          "indexed": true,
          "internalType": "address",
          "name": "to",
          "type": "address"
        },
        {
          "indexed": true,
          "internalType": "uint256",
          "name": "tokenId",
          "type": "uint256"
        }
      ],
      "name": "Transfer",
      "type": "event"
    },
    {
      "inputs": [
        {
          "internalType": "address",
          "name": "to",
          "type": "address"
        },
        {
          "internalType": "uint256",
          "name": "tokenId",
          "type": "uint256"
        }
      ],
      "name": "approve",
      "outputs": [],
      "stateMutability": "nonpayable",
      "type": "function"
    },
    {
      "inputs": [
        {
          "internalType": "address",
          "name": "owner",
          "type": "address"
        }
      ],
      "name": "balanceOf",
      "outputs": [
        {
          "internalType": "uint256",
          "name": "",
          "type": "uint256"
        }
      ],
      "stateMutability": "view",
      "type": "function"
    },
    {
      "inputs": [
        {
          "internalType": "uint256",
          "name": "",
          "type": "uint256"
        }
      ],
      "name": "characterRequirements",
      "outputs": [
        {
          "internalType": "uint256",
          "name": "pointsRequired",
          "type": "uint256"
        },
        {
          "internalType": "uint256",
          "name": "gemsRequired",
          "type": "uint256"
        },
        {
          "internalType": "bool",
          "name": "isActive",
          "type": "bool"
        }
      ],
      "stateMutability": "view",
      "type": "function"
    },
    {
      "inputs": [],
      "name": "gameManager",
      "outputs": [
        {
          "internalType": "address",
          "name": "",
          "type": "address"
        }
      ],
      "stateMutability": "view",
      "type": "function"
    },
    {
      "inputs": [
        {
          "internalType": "uint256",
          "name": "tokenId",
          "type": "uint256"
        }
      ],
      "name": "getApproved",
      "outputs": [
        {
          "internalType": "address",
          "name": "",
          "type": "address"
        }
      ],
      "stateMutability": "view",
      "type": "function"
    },
    {
      "inputs": [
        {
          "internalType": "address",
          "name": "owner",
          "type": "address"
        },
        {
          "internalType": "address",
          "name": "operator",
          "type": "address"
        }
      ],
      "name": "isApprovedForAll",
      "outputs": [
        {
          "internalType": "bool",
          "name": "",
          "type": "bool"
        }
      ],
      "stateMutability": "view",
      "type": "function"
    },
    {
      "inputs": [
        {
          "internalType": "address",
          "name": "to",
          "type": "address"
        },
        {
          "internalType": "string",
          "name": "tokenURI",
          "type": "string"
        },
        {
          "internalType": "uint256",
          "name": "characterId",
          "type": "uint256"
        }
      ],
      "name": "mintCharacter",
      "outputs": [
        {
          "internalType": "uint256",
          "name": "",
          "type": "uint256"
        }
      ],
      "stateMutability": "nonpayable",
      "type": "function"
    },
    {
      "inputs": [],
      "name": "name",
      "outputs": [
        {
          "internalType": "string",
          "name": "",
          "type": "string"
        }
      ],
      "stateMutability": "view",
      "type": "function"
    },
    {
      "inputs": [
        {
          "internalType": "uint256",
          "name": "tokenId",
          "type": "uint256"
        }
      ],
      "name": "ownerOf",
      "outputs": [
        {
          "internalType": "address",
          "name": "",
          "type": "address"
        }
      ],
      "stateMutability": "view",
      "type": "function"
    },
    {
      "inputs": [
        {
          "internalType": "address",
          "name": "from",
          "type": "address"
        },
        {
          "internalType": "address",
          "name": "to",
          "type": "address"
        },
        {
          "internalType": "uint256",
          "name": "tokenId",
          "type": "uint256"
        }
      ],
      "name": "safeTransferFrom",
      "outputs": [],
      "stateMutability": "nonpayable",
      "type": "function"
    },
    {
      "inputs": [
        {
          "internalType": "address",
          "name": "from",
          "type": "address"
        },
        {
          "internalType": "address",
          "name": "to",
          "type": "address"
        },
        {
          "internalType": "uint256",
          "name": "tokenId",
          "type": "uint256"
        },
        {
          "internalType": "bytes",
          "name": "data",
          "type": "bytes"
        }
      ],
      "name": "safeTransferFrom",
      "outputs": [],
      "stateMutability": "nonpayable",
      "type": "function"
    },
    {
      "inputs": [
        {
          "internalType": "address",
          "name": "operator",
          "type": "address"
        },
        {
          "internalType": "bool",
          "name": "approved",
          "type": "bool"
        }
      ],
      "name": "setApprovalForAll",
      "outputs": [],
      "stateMutability": "nonpayable",
      "type": "function"
    },
    {
      "inputs": [
        {
          "internalType": "uint256",
          "name": "characterId",
          "type": "uint256"
        },
        {
          "internalType": "uint256",
          "name": "pointsRequired",
          "type": "uint256"
        },
        {
          "internalType": "uint256",
          "name": "gemsRequired",
          "type": "uint256"
        },
        {
          "internalType": "bool",
          "name": "isActive",
          "type": "bool"
        }
      ],
      "name": "setCharacterRequirements",
      "outputs": [],
      "stateMutability": "nonpayable",
      "type": "function"
    },
    {
      "inputs": [
        {
          "internalType": "address",
          "name": "newGameManager",
          "type": "address"
        }
      ],
      "name": "setGameManager",
      "outputs": [],
      "stateMutability": "nonpayable",
      "type": "function"
    },
    {
      "inputs": [
        {
          "internalType": "bytes4",
          "name": "interfaceId",
          "type": "bytes4"
        }
      ],
      "name": "supportsInterface",
      "outputs": [
        {
          "internalType": "bool",
          "name": "",
          "type": "bool"
        }
      ],
      "stateMutability": "view",
      "type": "function"
    },
    {
      "inputs": [],
      "name": "symbol",
      "outputs": [
        {
          "internalType": "string",
          "name": "",
          "type": "string"
        }
      ],
      "stateMutability": "view",
      "type": "function"
    },
    {
      "inputs": [
        {
          "internalType": "uint256",
          "name": "tokenId",
          "type": "uint256"
        }
      ],
      "name": "tokenURI",
      "outputs": [
        {
          "internalType": "string",
          "name": "",
          "type": "string"
        }
      ],
      "stateMutability": "view",
      "type": "function"
    },
    {
      "inputs": [
        {
          "internalType": "address",
          "name": "from",
          "type": "address"
        },
        {
          "internalType": "address",
          "name": "to",
          "type": "address"
        },
        {
          "internalType": "uint256",
          "name": "tokenId",
          "type": "uint256"
        }
      ],
      "name": "transferFrom",
      "outputs": [],
      "stateMutability": "nonpayable",
      "type": "function"
    }
  ],
  "bytecode": "0x60806040523480156200001157600080fd5b506040518060400160405280600f81526020016e22b7b734b0b721b430b930b1ba32b960891b8152506040518060400160405280600481526020016322a1a42960e11b815250816000908162000068919062000139565b50600162000077828262000139565b5050600980546001600160a01b031916331790555062000205565b634e487b7160e01b600052604160045260246000fd5b600181811c90821680620000bd57607f821691505b602082108103620000de57634e487b7160e01b600052602260045260246000fd5b50919050565b601f82111562000134576000816000526020600020601f850160051c810160208610156200010f5750805b601f850160051c820191505b8181101562000130578281556001016200011b565b5050505b505050565b81516001600160401b0381111562000155576200015562000092565b6200016d81620001668454620000a8565b84620000e4565b602080601f831160018114620001a557600084156200018c5750858301515b600019600386901b1c1916600185901b17855562000130565b600085815260208120601f198616915b82811015620001d657888601518255948401946001909101908401620001b5565b5085821015620001f55787850151600019600388901b60f8161c191681555b5050505050600190811b01905550565b6115b380620002156000396000f3fe608060405234801561001057600080fd5b50600436106101165760003560e01c806370a08231116100a2578063b7127e4111610071578063b7127e4114610282578063b88d4fde14610295578063c6b05266146102a8578063c87b56dd146102bb578063e985e9c5146102ce57600080fd5b806370a0823114610241578063774d63a71461025457806395d89b4114610267578063a22cb4651461026f57600080fd5b8063107c856f116100e9578063107c856f1461019857806323b872dd146101e757806342842e0e146101fa5780636352211e1461020d5780636f3ff8991461022057600080fd5b806301ffc9a71461011b57806306fdde0314610143578063081812fc14610158578063095ea7b314610183575b600080fd5b61012e610129366004611036565b6102e1565b60405190151581526020015b60405180910390f35b61014b61030c565b60405161013a91906110a3565b61016b6101663660046110b6565b61039e565b6040516001600160a01b03909116815260200161013a565b6101966101913660046110eb565b6103c7565b005b6101ca6101a63660046110b6565b60086020526000908152604090208054600182015460029092015490919060ff1683565b60408051938452602084019290925215159082015260600161013a565b6101966101f5366004611115565b6103d6565b610196610208366004611115565b610466565b61016b61021b3660046110b6565b610486565b61023361022e3660046111dd565b610491565b60405190815260200161013a565b61023361024f366004611248565b610526565b610196610262366004611273565b61056e565b61014b610606565b61019661027d3660046112b2565b610615565b610196610290366004611248565b610620565b6101966102a33660046112e5565b610713565b60095461016b906001600160a01b031681565b61014b6102c93660046110b6565b61072b565b61012e6102dc366004611361565b610834565b60006001600160e01b03198216632483248360e11b1480610306575061030682610862565b92915050565b60606000805461031b9061138b565b80601f01602080910402602001604051908101604052809291908181526020018280546103479061138b565b80156103945780601f1061036957610100808354040283529160200191610394565b820191906000526020600020905b81548152906001019060200180831161037757829003601f168201915b5050505050905090565b60006103a9826108b2565b506000828152600460205260409020546001600160a01b0316610306565b6103d28282336108eb565b5050565b6001600160a01b03821661040557604051633250574960e11b8152600060048201526024015b60405180910390fd5b60006104128383336108f8565b9050836001600160a01b0316816001600160a01b031614610460576040516364283d7b60e01b81526001600160a01b03808616600483015260248201849052821660448201526064016103fc565b50505050565b61048183838360405180602001604052806000815250610713565b505050565b6000610306826108b2565b60008181526008602052604081206002015460ff166104f25760405162461bcd60e51b815260206004820152601760248201527f436861726163746572206e6f7420617661696c61626c6500000000000000000060448201526064016103fc565b60078054906000610502836113c5565b909155505060075461051485826109f1565b61051e8185610a56565b949350505050565b60006001600160a01b038216610552576040516322718ad960e21b8152600060048201526024016103fc565b506001600160a01b031660009081526003602052604090205490565b6009546001600160a01b031633146105b95760405162461bcd60e51b815260206004820152600e60248201526d139bdd08185d5d1a1bdc9a5e995960921b60448201526064016103fc565b604080516060810182529384526020808501938452911515848201908152600095865260089092529093209151825551600182015590516002909101805460ff1916911515919091179055565b60606001805461031b9061138b565b6103d2338383610aa6565b6009546001600160a01b0316331461066b5760405162461bcd60e51b815260206004820152600e60248201526d139bdd08185d5d1a1bdc9a5e995960921b60448201526064016103fc565b6001600160a01b0381166106c15760405162461bcd60e51b815260206004820152601c60248201527f496e76616c69642067616d65206d616e6167657220616464726573730000000060448201526064016103fc565b600980546001600160a01b038381166001600160a01b0319831681179093556040519116919082907f13da884af101d5ec272cfc208641837648f82aad8b56a1611d2d9757f73189f290600090a35050565b61071e8484846103d6565b6104603385858585610b45565b6060610736826108b2565b50600082815260066020526040812080546107509061138b565b80601f016020809104026020016040519081016040528092919081815260200182805461077c9061138b565b80156107c95780601f1061079e576101008083540402835291602001916107c9565b820191906000526020600020905b8154815290600101906020018083116107ac57829003601f168201915b5050505050905060006107e760408051602081019091526000815290565b905080516000036107f9575092915050565b81511561082b5780826040516020016108139291906113ec565b60405160208183030381529060405292505050919050565b61051e84610c70565b6001600160a01b03918216600090815260056020908152604080832093909416825291909152205460ff1690565b60006001600160e01b031982166380ac58cd60e01b148061089357506001600160e01b03198216635b5e139f60e01b145b8061030657506301ffc9a760e01b6001600160e01b0319831614610306565b6000818152600260205260408120546001600160a01b03168061030657604051637e27328960e01b8152600481018490526024016103fc565b6104818383836001610ce5565b6000828152600260205260408120546001600160a01b039081169083161561092557610925818486610deb565b6001600160a01b0381161561096357610942600085600080610ce5565b6001600160a01b038116600090815260036020526040902080546000190190555b6001600160a01b03851615610992576001600160a01b0385166000908152600360205260409020805460010190555b60008481526002602052604080822080546001600160a01b0319166001600160a01b0389811691821790925591518793918516917fddf252ad1be2c89b69c2b068fc378daa952ba7f163c4a11628f55a4df523b3ef91a4949350505050565b6001600160a01b038216610a1b57604051633250574960e11b8152600060048201526024016103fc565b6000610a29838360006108f8565b90506001600160a01b03811615610481576040516339e3563760e11b8152600060048201526024016103fc565b6000828152600660205260409020610a6e8282611463565b506040518281527ff8e1a15aba9398e019f0b49df1a4fde98ee17ae345cb5f6b5e2c27f5033e8ce79060200160405180910390a15050565b6001600160a01b038216610ad857604051630b61174360e31b81526001600160a01b03831660048201526024016103fc565b6001600160a01b03838116600081815260056020908152604080832094871680845294825291829020805460ff191686151590811790915591519182527f17307eab39ab6107e8899845ad3d59bd9653f200f220920489ca2b5937696c31910160405180910390a3505050565b6001600160a01b0383163b15610c6957604051630a85bd0160e11b81526001600160a01b0384169063150b7a0290610b87908890889087908790600401611523565b6020604051808303816000875af1925050508015610bc2575060408051601f3d908101601f19168201909252610bbf91810190611560565b60015b610c2b573d808015610bf0576040519150601f19603f3d011682016040523d82523d6000602084013e610bf5565b606091505b508051600003610c2357604051633250574960e11b81526001600160a01b03851660048201526024016103fc565b805181602001fd5b6001600160e01b03198116630a85bd0160e11b14610c6757604051633250574960e11b81526001600160a01b03851660048201526024016103fc565b505b5050505050565b6060610c7b826108b2565b506000610c9360408051602081019091526000815290565b90506000815111610cb35760405180602001604052806000815250610cde565b80610cbd84610e4f565b604051602001610cce9291906113ec565b6040516020818303038152906040525b9392505050565b8080610cf957506001600160a01b03821615155b15610dbb576000610d09846108b2565b90506001600160a01b03831615801590610d355750826001600160a01b0316816001600160a01b031614155b8015610d485750610d468184610834565b155b15610d715760405163a9fbf51f60e01b81526001600160a01b03841660048201526024016103fc565b8115610db95783856001600160a01b0316826001600160a01b03167f8c5be1e5ebec7d5bd14f71427d1e84f3dd0314c0f7b2291e5b200ac8c7c3b92560405160405180910390a45b505b5050600090815260046020526040902080546001600160a01b0319166001600160a01b0392909216919091179055565b610df6838383610ee2565b610481576001600160a01b038316610e2457604051637e27328960e01b8152600481018290526024016103fc565b60405163177e802f60e01b81526001600160a01b0383166004820152602481018290526044016103fc565b60606000610e5c83610f45565b600101905060008167ffffffffffffffff811115610e7c57610e7c611151565b6040519080825280601f01601f191660200182016040528015610ea6576020820181803683370190505b5090508181016020015b600019016f181899199a1a9b1b9c1cb0b131b232b360811b600a86061a8153600a8504945084610eb057509392505050565b60006001600160a01b0383161580159061051e5750826001600160a01b0316846001600160a01b03161480610f1c5750610f1c8484610834565b8061051e5750506000908152600460205260409020546001600160a01b03908116911614919050565b60008072184f03e93ff9f4daa797ed6e38ed64bf6a1f0160401b8310610f845772184f03e93ff9f4daa797ed6e38ed64bf6a1f0160401b830492506040015b6d04ee2d6d415b85acef81000000008310610fb0576d04ee2d6d415b85acef8100000000830492506020015b662386f26fc100008310610fce57662386f26fc10000830492506010015b6305f5e1008310610fe6576305f5e100830492506008015b6127108310610ffa57612710830492506004015b6064831061100c576064830492506002015b600a83106103065760010192915050565b6001600160e01b03198116811461103357600080fd5b50565b60006020828403121561104857600080fd5b8135610cde8161101d565b60005b8381101561106e578181015183820152602001611056565b50506000910152565b6000815180845261108f816020860160208601611053565b601f01601f19169290920160200192915050565b602081526000610cde6020830184611077565b6000602082840312156110c857600080fd5b5035919050565b80356001600160a01b03811681146110e657600080fd5b919050565b600080604083850312156110fe57600080fd5b611107836110cf565b946020939093013593505050565b60008060006060848603121561112a57600080fd5b611133846110cf565b9250611141602085016110cf565b9150604084013590509250925092565b634e487b7160e01b600052604160045260246000fd5b600067ffffffffffffffff8084111561118257611182611151565b604051601f8501601f19908116603f011681019082821181831017156111aa576111aa611151565b816040528093508581528686860111156111c357600080fd5b858560208301376000602087830101525050509392505050565b6000806000606084860312156111f257600080fd5b6111fb846110cf565b9250602084013567ffffffffffffffff81111561121757600080fd5b8401601f8101861361122857600080fd5b61123786823560208401611167565b925050604084013590509250925092565b60006020828403121561125a57600080fd5b610cde826110cf565b803580151581146110e657600080fd5b6000806000806080858703121561128957600080fd5b8435935060208501359250604085013591506112a760608601611263565b905092959194509250565b600080604083850312156112c557600080fd5b6112ce836110cf565b91506112dc60208401611263565b90509250929050565b600080600080608085870312156112fb57600080fd5b611304856110cf565b9350611312602086016110cf565b925060408501359150606085013567ffffffffffffffff81111561133557600080fd5b8501601f8101871361134657600080fd5b61135587823560208401611167565b91505092959194509250565b6000806040838503121561137457600080fd5b61137d836110cf565b91506112dc602084016110cf565b600181811c9082168061139f57607f821691505b6020821081036113bf57634e487b7160e01b600052602260045260246000fd5b50919050565b6000600182016113e557634e487b7160e01b600052601160045260246000fd5b5060010190565b600083516113fe818460208801611053565b835190830190611412818360208801611053565b01949350505050565b601f821115610481576000816000526020600020601f850160051c810160208610156114445750805b601f850160051c820191505b81811015610c6757828155600101611450565b815167ffffffffffffffff81111561147d5761147d611151565b6114918161148b845461138b565b8461141b565b602080601f8311600181146114c657600084156114ae5750858301515b600019600386901b1c1916600185901b178555610c67565b600085815260208120601f198616915b828110156114f5578886015182559484019460019091019084016114d6565b50858210156115135787850151600019600388901b60f8161c191681555b5050505050600190811b01905550565b6001600160a01b038581168252841660208201526040810183905260806060820181905260009061155690830184611077565b9695505050505050565b60006020828403121561157257600080fd5b8151610cde8161101d56fea2646970667358221220a548d4883ccc2ddd9abc60840388b4f7ebd6e3dc2554617dddff24c88b7838b664736f6c63430008180033",
  "linkReferences": {},
  "deployedLinkReferences": {}
}