{
  "_format": "hh-sol-artifact-1",
  "contractName": "MarketplaceEnclave",
  "sourceName": "contracts/MarketplaceEnclave.sol",
  "abi": [
    {
      "inputs": [
        {
          "internalType": "uint256",
          "name": "nonce",
          "type": "uint256"
        },
        {
          "internalType": "bytes32",
          "name": "chain",
          "type": "bytes32"
        }
      ],
      "stateMutability": "nonpayable",
      "type": "constructor"
    },
    {
      "inputs": [],
      "name": "AutoConfigUnavailable",
      "type": "error"
    },
    {
      "inputs": [],
      "name": "MissingRemoteAddr",
      "type": "error"
    },
    {
      "inputs": [],
      "name": "MissingRemoteChainId",
      "type": "error"
    },
    {
      "inputs": [],
      "name": "SelfCallDisallowed",
      "type": "error"
    },
    {
      "inputs": [
        {
          "internalType": "address",
          "name": "_origin",
          "type": "address"
        },
        {
          "internalType": "uint256",
          "name": "_nonce",
          "type": "uint256"
        }
      ],
      "name": "computeAddress",
      "outputs": [
        {
          "internalType": "address",
          "name": "",
          "type": "address"
        }
      ],
      "stateMutability": "pure",
      "type": "function"
    },
    {
      "inputs": [],
      "name": "deployer",
      "outputs": [
        {
          "internalType": "address",
          "name": "",
          "type": "address"
        }
      ],
      "stateMutability": "view",
      "type": "function"
    },
    {
      "inputs": [
        {
          "internalType": "address",
          "name": "_sender",
          "type": "address"
        },
        {
          "internalType": "uint64",
          "name": "_senderChainId",
          "type": "uint64"
        },
        {
          "internalType": "bytes",
          "name": "_message",
          "type": "bytes"
        },
        {
          "internalType": "address",
          "name": "",
          "type": "address"
        }
      ],
      "name": "executeMessage",
      "outputs": [
        {
          "internalType": "uint256",
          "name": "",
          "type": "uint256"
        }
      ],
      "stateMutability": "payable",
      "type": "function"
    }
  ],
  "bytecode": "0x60e06040523480156200001157600080fd5b5060405162001cdc38038062001cdc833981016040819052620000349162000d60565b6200004033836200016b565b6200004b82620003a3565b8181816200005982620004d8565b620000658484620004fc565b60006001600160a01b0384166200008f57604051635f9997df60e01b815260040160405180910390fd5b82600003620000b157604051630a9e222360e41b815260040160405180910390fd5b600080546001600160a01b0319166001600160a01b03868116919091179091556001849055821660805280151560a052620000eb6200052c565b158015620000f857504683145b1562000117576040516336fc0b5f60e21b815260040160405180910390fd5b5050505050505050620001636040518060400160405280600f81526020016e70726f63657373507572636861736560881b8152506200055460201b62000501176200064060201b60201c565b505062000f53565b600081600003620001d057604051606b60f91b6020820152602560fa1b60218201526001600160601b0319606085901b166022820152600160ff1b60368201526037015b6040516020818303038152906040528051906020012060001c90506200039d565b607f82116200022157604051606b60f91b6020820152602560fa1b60218201526001600160601b0319606085901b1660228201526001600160f81b031960f884901b166036820152603701620001af565b60ff82116200027c5760405160d760f81b6020820152602560fa1b60218201526001600160601b0319606085901b166022820152608160f81b603682015260f883901b6001600160f81b0319166037820152603801620001af565b61ffff8211620002d857604051601b60fb1b6020820152602560fa1b60218201526001600160601b0319606085901b166022820152604160f91b60368201526001600160f01b031960f084901b166037820152603901620001af565b62ffffff8211620003355760405160d960f81b6020820152602560fa1b60218201526001600160601b0319606085901b166022820152608360f81b60368201526001600160e81b031960e884901b166037820152603a01620001af565b604051606d60f91b6020820152602560fa1b60218201526001600160601b0319606085901b166022820152602160fa1b60368201526001600160e01b031960e084901b166037820152603b016040516020818303038152906040528051906020012060001c90505b92915050565b6000466105391480620003b7575046617a69145b15620003cc5750641b1bd8d85b60da1b919050565b6000620003d94662000680565b9150508015620004a557826262736360e81b036200040757506a189cd8cb5d195cdd1b995d60aa1b92915050565b826566616e746f6d60d01b036200043157506d19985b9d1bdb4b5d195cdd1b995d60921b92915050565b8267736170706869726560c01b036200045f57506f1cd85c1c1a1a5c994b5d195cdd1b995d60821b92915050565b82686176616c616e63686560b81b036200048c57506d6176616c616e6368652d66756a6960901b92915050565b60405163047a7e4960e21b815260040160405180910390fd5b620004b083620008bb565b600003620004d15760405163047a7e4960e21b815260040160405180910390fd5b5090919050565b600081641b1bd8d85b60da1b03620004f1575046919050565b6200039d82620008bb565b600081641b1bd8d85b60da1b03620005165750816200039d565b6000620005234662000680565b50949350505050565b600080546080516001600160a01b0390811691161480156200054f575060015446145b905090565b600080808080620005688688018862000d85565b6040516001600160601b0319606086901b166020820152603481018490524260548201529397509195509350915060009060740160408051601f198184030181528282528051602091820120600081815260058352928320805460ff1916600117905593509091620005f29188918891016001600160a01b03929092168252602082015260400190565b60408051601f19818403018152828201909152601082526f636f6d706c657465507572636861736560801b6020830152915062000630908262000a61565b5060029998505050505050505050565b81516020928301206001600160e01b03191660009081526002909252604090912080546001600160401b0319166001600160401b03909216919091179055565b60008082600103620006ab5750734066d196a423b2b3b8b054f4f40efb47a74e200c92600092509050565b82600a03620006d35750730d71d18126e03646eb09fec929e2ae87b7cae69d92600092509050565b82603803620006fb57507395714818fdd7a5454f73da9c777b3ee6ebaeea6b92600092509050565b8260610362000723575073ad204986d6cb67a5bc76a3cb8974823f43cb9aaa92600192509050565b826089036200074b575073afdb9c40c7144022811f034ee07ce2e110093fe692600092509050565b8260fa0362000773575073ff4e183a0ceb4fa98e63bbf8077b929c8e5a2ba492600092509050565b82610fa2036200079c575073b92d6933a024bcca9a21669a480c236cbc97311092600192509050565b8261050503620007c5575073940daaba3f713abfabd79cdd991466fe698cbe5492600092509050565b82615afe03620007ee5750739bb46d5100d2db4608112026951c9c965b233f4d92600092509050565b82615aff03620008175750739bb46d5100d2db4608112026951c9c965b233f4d92600192509050565b8261a4b103620008405750733ad9d0648cdaa2426331e894e980d0a5ed16257f92600092509050565b8261a4ba0362000869575073f5c6825015280cdfd0b56903f9f8b5a2233476f592600092509050565b8261a8690362000892575073e9533976c590200e32d95c53f06ae12d292cfc4792600192509050565b8261a86a036200048c5750735a926eeeafc4d217add17e9641e8ce23cd01ad5792600092509050565b60008167657468657265756d60c01b03620008d857506001919050565b81676f7074696d69736d60c01b03620008f35750600a919050565b816262736360e81b036200090957506038919050565b816a189cd8cb5d195cdd1b995d60aa1b036200092757506061919050565b81663837b63cb3b7b760c91b036200094157506089919050565b816566616e746f6d60d01b036200095a575060fa919050565b816d19985b9d1bdb4b5d195cdd1b995d60921b036200097c5750610fa2919050565b816836b7b7b73934bb32b960b91b03620009995750610505919050565b816b617262697472756d2d6f6e6560a01b03620009b9575061a4b1919050565b816c617262697472756d2d6e6f766160981b03620009da575061a4ba919050565b8167736170706869726560c01b03620009f65750615afe919050565b816f1cd85c1c1a1a5c994b5d195cdd1b995d60821b0362000a1a5750615aff919050565b81686176616c616e63686560b81b0362000a37575061a86a919050565b816d6176616c616e6368652d66756a6960901b0362000a59575061a869919050565b506000919050565b60008083805190602001206003548460405160200162000a849392919062000df4565b6040516020818303038152906040529050600062000aa9825162000c5060201b60201c565b905062000ab56200052c565b1562000bbf57608051604051639c649fdf60e01b81526000916001600160a01b031690639c649fdf9062000af490309046908890839060040162000e5a565b6020604051808303816000875af115801562000b14573d6000803e3d6000fd5b505050506040513d601f19601f8201168201806040525081019062000b3a919062000ea5565b90508060011462000b815760405162461bcd60e51b815260206004820152600d60248201526c2932b1b2b4bb32b922b93937b960991b604482015260640160405180910390fd5b811562000bb85760405160009083156108fc0290849083818181858288f1935050505015801562000bb6573d6000803e3d6000fd5b505b5062000c33565b608051600054600154604051634f9e72ad60e11b81526001600160a01b0393841693639f3ce55a93869362000bfe939290911691889060040162000ebf565b6000604051808303818588803b15801562000c1857600080fd5b505af115801562000c2d573d6000803e3d6000fd5b50505050505b60036000815462000c449062000f07565b90915550949350505050565b600062000c5c6200052c565b1562000c6a57506000919050565b60006080516001600160a01b03166395e911a86040518163ffffffff1660e01b8152600401602060405180830381865afa15801562000cad573d6000803e3d6000fd5b505050506040513d601f19601f8201168201806040525081019062000cd3919062000ea5565b905060006080516001600160a01b031663f60bbe2a6040518163ffffffff1660e01b8152600401602060405180830381865afa15801562000d18573d6000803e3d6000fd5b505050506040513d601f19601f8201168201806040525081019062000d3e919062000ea5565b905062000d4c818562000f23565b62000d58908362000f3d565b949350505050565b6000806040838503121562000d7457600080fd5b505080516020909101519092909150565b6000806000806080858703121562000d9c57600080fd5b84356001600160a01b038116811462000db457600080fd5b966020860135965060408601359560600135945092505050565b60005b8381101562000deb57818101518382015260200162000dd1565b50506000910152565b63ffffffff60e01b841681528260048201526000825162000e1d81602485016020870162000dce565b91909101602401949350505050565b6000815180845262000e4681602086016020860162000dce565b601f01601f19169290920160200192915050565b6001600160a01b0385811682526001600160401b03851660208301526080604083018190526000919062000e919084018662000e2c565b915080841660608401525095945050505050565b60006020828403121562000eb857600080fd5b5051919050565b60018060a01b038416815282602082015260606040820152600062000ee8606083018462000e2c565b95945050505050565b634e487b7160e01b600052601160045260246000fd5b60006001820162000f1c5762000f1c62000ef1565b5060010190565b80820281158282048414176200039d576200039d62000ef1565b808201808211156200039d576200039d62000ef1565b60805160a05160c051610d3762000fa5600039600060a9015260006103e10152600081816102cc0152818161064f015281816107670152818161080d0152818161089301526109370152610d376000f3fe6080604052600436106100345760003560e01c806336b5aa2d146100395780639c649fdf14610076578063d5f3948814610097575b600080fd5b34801561004557600080fd5b506100596100543660046109a8565b6100cb565b6040516001600160a01b0390911681526020015b60405180910390f35b6100896100843660046109d4565b6102bf565b60405190815260200161006d565b3480156100a357600080fd5b506100597f000000000000000000000000000000000000000000000000000000000000000081565b600081600003610118576040516100f890606b60f91b90602560fa1b908690600160ff1b90602001610a84565b6040516020818303038152906040528051906020012060001c90506102b9565b607f8211610143576040516100f890606b60f91b90602560fa1b90869060f887901b90602001610a84565b60ff821161019c5760405160d760f81b6020820152602560fa1b60218201526001600160601b0319606085901b166022820152608160f81b603682015260f883901b6001600160f81b03191660378201526038016100f8565b61ffff82116101f657604051601b60fb1b6020820152602560fa1b60218201526001600160601b0319606085901b166022820152604160f91b60368201526001600160f01b031960f084901b1660378201526039016100f8565b62ffffff82116102515760405160d960f81b6020820152602560fa1b60218201526001600160601b0319606085901b166022820152608360f81b60368201526001600160e81b031960e884901b166037820152603a016100f8565b604051606d60f91b6020820152602560fa1b60218201526001600160601b0319606085901b166022820152602160fa1b60368201526001600160e01b031960e084901b166037820152603b016040516020818303038152906040528051906020012060001c90505b92915050565b6000336001600160a01b037f0000000000000000000000000000000000000000000000000000000000000000161461032e5760405162461bcd60e51b815260206004820152600d60248201526c4e6f744d65737361676542757360981b60448201526064015b60405180910390fd5b6000546001600160a01b03878116911614801561035657506001548567ffffffffffffffff16145b6103965760405162461bcd60e51b8152602060048201526011602482015270139bdd14995b5bdd19515b991c1bda5b9d607a1b6044820152606401610325565b60006103a56004828688610abd565b6103ae91610ae7565b905060006103c0602460048789610abd565b6103c991610b17565b90503660006103db876024818b610abd565b915091507f0000000000000000000000000000000000000000000000000000000000000000156104585760045483146104445760405162461bcd60e51b815260206004820152600b60248201526a57726f6e675365714e756d60a81b6044820152606401610325565b60046000815461045390610b4b565b909155505b6001600160e01b031984166000908152600260205260408120546109768115021767ffffffffffffffff811691821591610498908690869063ffffffff16565b905060018160028111156104ae576104ae610b64565b036104c35760029750505050505050506104f8565b60028160028111156104d7576104d7610b64565b036104ec5760019750505050505050506104f8565b60009750505050505050505b95945050505050565b60008080808061051386880188610b7a565b6040516001600160601b0319606086901b166020820152603481018490524260548201529397509195509350915060009060740160408051601f198184030181528282528051602091820120600081815260058352928320805460ff191660011790559350909161059c9188918891016001600160a01b03929092168252602082015260400190565b60408051601f19818403018152828201909152601082526f636f6d706c657465507572636861736560801b602083015291506105d890826105e8565b5060029998505050505050505050565b60008083805190602001206003548460405160200161060993929190610bd9565b6040516020818303038152906040529050600061062682516107f2565b9050610630610931565b1561074a57604051639c649fdf60e01b81526000906001600160a01b037f00000000000000000000000000000000000000000000000000000000000000001690639c649fdf9061068a903090469088908390600401610c3b565b6020604051808303816000875af11580156106a9573d6000803e3d6000fd5b505050506040513d601f19601f820116820180604052508101906106cd9190610c81565b90508060011461070f5760405162461bcd60e51b815260206004820152600d60248201526c2932b1b2b4bb32b922b93937b960991b6044820152606401610325565b81156107445760405160009083156108fc0290849083818181858288f19350505050158015610742573d6000803e3d6000fd5b505b506107d7565b600054600154604051634f9e72ad60e11b81526001600160a01b037f0000000000000000000000000000000000000000000000000000000000000000811693639f3ce55a9386936107a49392909216918890600401610c9a565b6000604051808303818588803b1580156107bd57600080fd5b505af11580156107d1573d6000803e3d6000fd5b50505050505b6003600081546107e690610b4b565b90915550949350505050565b60006107fc610931565b1561080957506000919050565b60007f00000000000000000000000000000000000000000000000000000000000000006001600160a01b03166395e911a86040518163ffffffff1660e01b8152600401602060405180830381865afa158015610869573d6000803e3d6000fd5b505050506040513d601f19601f8201168201806040525081019061088d9190610c81565b905060007f00000000000000000000000000000000000000000000000000000000000000006001600160a01b031663f60bbe2a6040518163ffffffff1660e01b8152600401602060405180830381865afa1580156108ef573d6000803e3d6000fd5b505050506040513d601f19601f820116820180604052508101906109139190610c81565b905061091f8185610cc1565b6109299083610cd8565b949350505050565b600080547f00000000000000000000000000000000000000000000000000000000000000006001600160a01b039081169116148015610971575060015446145b905090565b61097e610ceb565b565b6001600160a01b038116811461099557600080fd5b50565b80356109a381610980565b919050565b600080604083850312156109bb57600080fd5b82356109c681610980565b946020939093013593505050565b6000806000806000608086880312156109ec57600080fd5b85356109f781610980565b9450602086013567ffffffffffffffff8082168214610a1557600080fd5b90945060408701359080821115610a2b57600080fd5b818801915088601f830112610a3f57600080fd5b813581811115610a4e57600080fd5b896020828501011115610a6057600080fd5b602083019550809450505050610a7860608701610998565b90509295509295909350565b6001600160f81b03199485168152928416600184015260609190911b6001600160601b0319166002830152909116601682015260170190565b60008085851115610acd57600080fd5b83861115610ada57600080fd5b5050820193919092039150565b6001600160e01b03198135818116916004851015610b0f5780818660040360031b1b83161692505b505092915050565b803560208310156102b957600019602084900360031b1b1692915050565b634e487b7160e01b600052601160045260246000fd5b600060018201610b5d57610b5d610b35565b5060010190565b634e487b7160e01b600052602160045260246000fd5b60008060008060808587031215610b9057600080fd5b8435610b9b81610980565b966020860135965060408601359560600135945092505050565b60005b83811015610bd0578181015183820152602001610bb8565b50506000910152565b63ffffffff60e01b8416815282600482015260008251610c00816024850160208701610bb5565b91909101602401949350505050565b60008151808452610c27816020860160208601610bb5565b601f01601f19169290920160200192915050565b600060018060a01b03808716835267ffffffffffffffff8616602084015260806040840152610c6d6080840186610c0f565b915080841660608401525095945050505050565b600060208284031215610c9357600080fd5b5051919050565b60018060a01b03841681528260208201526060604082015260006104f86060830184610c0f565b80820281158282048414176102b9576102b9610b35565b808201808211156102b9576102b9610b35565b634e487b7160e01b600052605160045260246000fdfea264697066735822122064feb66f29cc8f2fc682bef1beb301e2784aca0080b5491d0ed6b9eaaf79e34764736f6c63430008180033",
  "linkReferences": {},
  "deployedLinkReferences": {}
}