{
  "_format": "hh-sol-artifact-1",
  "contractName": "HomeGameplayManager",
  "sourceName": "contracts/HomeGameplayManager.sol",
  "abi": [
    {
      "inputs": [
        {
          "internalType": "address",
          "name": "characterNFTAddress",
          "type": "address"
        }
      ],
      "stateMutability": "nonpayable",
      "type": "constructor"
    },
    {
      "anonymous": false,
      "inputs": [
        {
          "indexed": true,
          "internalType": "address",
          "name": "player",
          "type": "address"
        },
        {
          "indexed": false,
          "internalType": "uint256",
          "name": "startTime",
          "type": "uint256"
        }
      ],
      "name": "FarmingStarted",
      "type": "event"
    },
    {
      "anonymous": false,
      "inputs": [
        {
          "indexed": true,
          "internalType": "address",
          "name": "player",
          "type": "address"
        },
        {
          "indexed": false,
          "internalType": "uint256",
          "name": "amount",
          "type": "uint256"
        }
      ],
      "name": "GemsClaimed",
      "type": "event"
    },
    {
      "anonymous": false,
      "inputs": [
        {
          "indexed": true,
          "internalType": "address",
          "name": "player",
          "type": "address"
        },
        {
          "indexed": false,
          "internalType": "uint256",
          "name": "newLives",
          "type": "uint256"
        }
      ],
      "name": "LivesReplenished",
      "type": "event"
    },
    {
      "anonymous": false,
      "inputs": [
        {
          "indexed": true,
          "internalType": "address",
          "name": "player",
          "type": "address"
        }
      ],
      "name": "NewPlayerRegistered",
      "type": "event"
    },
    {
      "inputs": [
        {
          "internalType": "address",
          "name": "player",
          "type": "address"
        },
        {
          "internalType": "uint256",
          "name": "multiplier",
          "type": "uint256"
        },
        {
          "internalType": "uint256",
          "name": "duration",
          "type": "uint256"
        }
      ],
      "name": "activateBoost",
      "outputs": [],
      "stateMutability": "nonpayable",
      "type": "function"
    },
    {
      "inputs": [
        {
          "internalType": "address",
          "name": "player",
          "type": "address"
        }
      ],
      "name": "calculateUnclaimedGems",
      "outputs": [
        {
          "internalType": "uint256",
          "name": "",
          "type": "uint256"
        }
      ],
      "stateMutability": "view",
      "type": "function"
    },
    {
      "inputs": [],
      "name": "claimGems",
      "outputs": [],
      "stateMutability": "nonpayable",
      "type": "function"
    },
    {
      "inputs": [],
      "name": "getAllPlayerAddresses",
      "outputs": [
        {
          "internalType": "address[]",
          "name": "",
          "type": "address[]"
        }
      ],
      "stateMutability": "view",
      "type": "function"
    },
    {
      "inputs": [
        {
          "internalType": "address",
          "name": "player",
          "type": "address"
        }
      ],
      "name": "getFarmingState",
      "outputs": [
        {
          "internalType": "bool",
          "name": "isActive",
          "type": "bool"
        },
        {
          "internalType": "uint256",
          "name": "unclaimedGems",
          "type": "uint256"
        },
        {
          "internalType": "uint256",
          "name": "startTime",
          "type": "uint256"
        },
        {
          "internalType": "uint256",
          "name": "lastClaimTime",
          "type": "uint256"
        }
      ],
      "stateMutability": "view",
      "type": "function"
    },
    {
      "inputs": [
        {
          "internalType": "uint256",
          "name": "offset",
          "type": "uint256"
        },
        {
          "internalType": "uint256",
          "name": "limit",
          "type": "uint256"
        }
      ],
      "name": "getLeaderboardPage",
      "outputs": [
        {
          "internalType": "address[]",
          "name": "addresses",
          "type": "address[]"
        },
        {
          "internalType": "uint256[]",
          "name": "pointValues",
          "type": "uint256[]"
        }
      ],
      "stateMutability": "view",
      "type": "function"
    },
    {
      "inputs": [
        {
          "internalType": "address",
          "name": "player",
          "type": "address"
        }
      ],
      "name": "getPlayerPoints",
      "outputs": [
        {
          "internalType": "uint256",
          "name": "",
          "type": "uint256"
        }
      ],
      "stateMutability": "view",
      "type": "function"
    },
    {
      "inputs": [
        {
          "internalType": "address",
          "name": "player",
          "type": "address"
        }
      ],
      "name": "getPlayerState",
      "outputs": [
        {
          "components": [
            {
              "internalType": "uint256",
              "name": "points",
              "type": "uint256"
            },
            {
              "internalType": "uint256",
              "name": "gems",
              "type": "uint256"
            },
            {
              "internalType": "uint256",
              "name": "lives",
              "type": "uint256"
            },
            {
              "internalType": "uint256[]",
              "name": "characterIds",
              "type": "uint256[]"
            },
            {
              "internalType": "uint256",
              "name": "lastReset",
              "type": "uint256"
            }
          ],
          "internalType": "struct HomeGameplayManager.PlayerState",
          "name": "",
          "type": "tuple"
        }
      ],
      "stateMutability": "view",
      "type": "function"
    },
    {
      "inputs": [],
      "name": "getTotalPlayers",
      "outputs": [
        {
          "internalType": "uint256",
          "name": "",
          "type": "uint256"
        }
      ],
      "stateMutability": "view",
      "type": "function"
    },
    {
      "inputs": [
        {
          "internalType": "address",
          "name": "to",
          "type": "address"
        },
        {
          "internalType": "string",
          "name": "tokenURI",
          "type": "string"
        },
        {
          "internalType": "uint256",
          "name": "characterId",
          "type": "uint256"
        }
      ],
      "name": "mintCharacterNFT",
      "outputs": [
        {
          "internalType": "uint256",
          "name": "",
          "type": "uint256"
        }
      ],
      "stateMutability": "nonpayable",
      "type": "function"
    },
    {
      "inputs": [],
      "name": "replenishLives",
      "outputs": [],
      "stateMutability": "nonpayable",
      "type": "function"
    },
    {
      "inputs": [],
      "name": "startFarming",
      "outputs": [],
      "stateMutability": "nonpayable",
      "type": "function"
    },
    {
      "inputs": [],
      "name": "stopFarming",
      "outputs": [],
      "stateMutability": "nonpayable",
      "type": "function"
    },
    {
      "inputs": [
        {
          "internalType": "address",
          "name": "player",
          "type": "address"
        },
        {
          "internalType": "uint256",
          "name": "newPoints",
          "type": "uint256"
        }
      ],
      "name": "updatePoints",
      "outputs": [],
      "stateMutability": "nonpayable",
      "type": "function"
    }
  ],
  "bytecode": "0x608060405234801561001057600080fd5b506040516116ef3803806116ef83398101604081905261002f91610054565b600080546001600160a01b0319166001600160a01b0392909216919091179055610084565b60006020828403121561006657600080fd5b81516001600160a01b038116811461007d57600080fd5b9392505050565b61165c806100936000396000f3fe608060405234801561001057600080fd5b50600436106100ea5760003560e01c80637e6741ec1161008c578063afbcfea111610066578063afbcfea1146101dc578063bc34ac1a146101e4578063bdb10ea41461020d578063c01ca43f1461022057600080fd5b80637e6741ec1461019657806392e3bf78146101a957806395c9790e146101d457600080fd5b80632c3f9700116100c85780632c3f9700146101465780634529cae71461015b5780634ba3f8571461016d5780635943b6df1461018e57600080fd5b80631bfa4c04146100ef57806328040cc6146100f95780632af0742414610133575b600080fd5b6100f7610240565b005b61010c61010736600461122f565b610324565b60408051941515855260208501939093529183015260608201526080015b60405180910390f35b6100f7610141366004611251565b610397565b61014e61042b565b60405161012a91906112c0565b6002545b60405190815260200161012a565b61018061017b3660046112d3565b61048d565b60405161012a9291906112f5565b6100f7610912565b61015f6101a436600461122f565b610a17565b6100f76101b736600461134c565b506001600160a01b03909116600090815260046020526040902055565b6100f7610ac9565b6100f7610c23565b61015f6101f236600461122f565b6001600160a01b031660009081526001602052604090205490565b61015f61021b366004611395565b610d1b565b61023361022e36600461122f565b610f54565b60405161012a9190611460565b336000908152600560205260409020600281015460ff1661029d5760405162461bcd60e51b81526020600482015260126024820152714661726d696e67206e6f742061637469766560701b60448201526064015b60405180910390fd5b60006102a833610a17565b9050801561030d5733600090815260016020819052604082200180548392906102d29084906114f4565b909155505060405181815233907f3c3d98d655edf27e8424abcbbf388654265349b4ce401a3106d40f63d00a5bc79060200160405180910390a25b5060028101805460ff191690556000600390910155565b6001600160a01b0381166000908152600560209081526040808320815160808101835281548152600182015493810193909352600281015460ff1615159183018290526003015460608301528291829182919061038087610a17565b825160209093015191989097509195509350915050565b600081116103e75760405162461bcd60e51b815260206004820152601760248201527f506f696e7473206d75737420626520706f7369746976650000000000000000006044820152606401610294565b6103f0826110cf565b6001600160a01b038216600090815260016020526040812080548392906104189084906114f4565b9091555061042790508261117f565b5050565b6060600280548060200260200160405190810160405280929190818152602001828054801561048357602002820191906000526020600020905b81546001600160a01b03168152600190910190602001808311610465575b5050505050905090565b60025460609081908015806104a25750808510155b156104c657505060408051600080825260208201908152818301909252915061090b565b6000816104d386886114f4565b116104de57846104e8565b6104e88683611507565b905060008267ffffffffffffffff8111156105055761050561137f565b60405190808252806020026020018201604052801561052e578160200160208202803683370190505b50905060008367ffffffffffffffff81111561054c5761054c61137f565b604051908082528060200260200182016040528015610575578160200160208202803683370190505b50905060005b8481101561064957600281815481106105965761059661151a565b9060005260206000200160009054906101000a90046001600160a01b03168382815181106105c6576105c661151a565b60200260200101906001600160a01b031690816001600160a01b03168152505060016000600283815481106105fd576105fd61151a565b60009182526020808320909101546001600160a01b0316835282019290925260400190205482518390839081106106365761063661151a565b602090810291909101015260010161057b565b5060005b848110156107da578060006106638260016114f4565b90505b868110156106b4578382815181106106805761068061151a565b602002602001015184828151811061069a5761069a61151a565b602002602001015111156106ac578091505b600101610666565b508181146107d15760008383815181106106d0576106d061151a565b602002602001015190508382815181106106ec576106ec61151a565b60200260200101518484815181106107065761070661151a565b602002602001018181525050808483815181106107255761072561151a565b60200260200101818152505060008584815181106107455761074561151a565b602002602001015190508583815181106107615761076161151a565b602002602001015186858151811061077b5761077b61151a565b60200260200101906001600160a01b031690816001600160a01b031681525050808684815181106107ae576107ae61151a565b60200260200101906001600160a01b031690816001600160a01b03168152505050505b5060010161064d565b508267ffffffffffffffff8111156107f4576107f461137f565b60405190808252806020026020018201604052801561081d578160200160208202803683370190505b5095508267ffffffffffffffff8111156108395761083961137f565b604051908082528060200260200182016040528015610862578160200160208202803683370190505b50945060005b83811015610905578261087b8a836114f4565b8151811061088b5761088b61151a565b60200260200101518782815181106108a5576108a561151a565b6001600160a01b0390921660209283029190910190910152816108c88a836114f4565b815181106108d8576108d861151a565b60200260200101518682815181106108f2576108f261151a565b6020908102919091010152600101610868565b50505050505b9250929050565b33600090815260016020526040812060048101549091036109755760056002820181905542600483015560405190815233907f1f73db667f11cbb68c5242190167f1fc0423dbecea40fab44871e3139302c5ab906020015b60405180910390a250565b600481015461098790620151806114f4565b4210156109d65760405162461bcd60e51b815260206004820152601f60248201527f43616e6e6f74207265706c656e69736820796574202d207761697420323468006044820152606401610294565b60056002820181905542600483015560405190815233907f1f73db667f11cbb68c5242190167f1fc0423dbecea40fab44871e3139302c5ab9060200161096a565b6001600160a01b0381166000908152600560209081526040808320815160808101835281548152600182015493810193909352600281015460ff161515918301829052600301546060830152610a705750600092915050565b6000612a30826020015142610a859190611507565b610a8f9190611530565b90506000610a9e600383611552565b8360600151610aad91906114f4565b905060038111610abd5780610ac0565b60035b95945050505050565b336000908152600560205260409020600281015460ff16610b215760405162461bcd60e51b81526020600482015260126024820152714661726d696e67206e6f742061637469766560701b6044820152606401610294565b6000610b2c33610a17565b905060008111610b715760405162461bcd60e51b815260206004820152601060248201526f4e6f2067656d7320746f20636c61696d60801b6044820152606401610294565b426001808401919091556000600384018190553381526020829052604081209091018054839290610ba39084906114f4565b909155505060028201805460ff191690556040516000815233907f7de25affb428d2916c612e371f3ece047da76e52c3b848bc8aa98f8f832d10fe9060200160405180910390a260405181815233907f3c3d98d655edf27e8424abcbbf388654265349b4ce401a3106d40f63d00a5bc79060200160405180910390a25050565b3360009081526005602052604090206002015460ff1615610c7f5760405162461bcd60e51b81526020600482015260166024820152754661726d696e6720616c72656164792061637469766560501b6044820152606401610294565b610c88336110cf565b604080516080810182524280825260208083018281526001848601818152600060608701818152338083526005875291899020975188559351928701929092555160028601805460ff19169115159190911790559051600390940193909355925190815290917f7de25affb428d2916c612e371f3ece047da76e52c3b848bc8aa98f8f832d10fe910160405180910390a2565b6001600160a01b038381166000908152600160205260408082208254915163107c856f60e01b8152600481018690529293909284928392839291169063107c856f90602401606060405180830381865afa158015610d7d573d6000803e3d6000fd5b505050506040513d601f19601f82011682018060405250810190610da19190611569565b92509250925080610df45760405162461bcd60e51b815260206004820152601760248201527f436861726163746572206e6f7420617661696c61626c650000000000000000006044820152606401610294565b8354831115610e395760405162461bcd60e51b81526020600482015260116024820152704e6f7420656e6f75676820706f696e747360781b6044820152606401610294565b8184600101541015610e7f5760405162461bcd60e51b815260206004820152600f60248201526e4e6f7420656e6f7567682067656d7360881b6044820152606401610294565b82846000016000828254610e939190611507565b9250508190555081846001016000828254610eae9190611507565b909155505060008054604051636f3ff89960e01b81526001600160a01b0390911690636f3ff89990610ee8908c908c908c906004016115a7565b6020604051808303816000875af1158015610f07573d6000803e3d6000fd5b505050506040513d601f19601f82011682018060405250810190610f2b919061160d565b600390950180546001810182556000918252602090912001859055509293505050509392505050565b610f866040518060a0016040528060008152602001600081526020016000815260200160608152602001600081525090565b6001600160a01b0382166000908152600160208181526040808420815160a08101835281548152938101548484015260028101548483015260038101805483518186028101860190945280845291936060860193929083018282801561100b57602002820191906000526020600020905b815481526020019060010190808311610ff7575b5050505050815260200160048201548152505090508060400151600014801561103657506080810151155b801561104157508051155b801561104f57506020810151155b156110c9576040518060a00160405280600081526020016000815260200160058152602001600067ffffffffffffffff81111561108e5761108e61137f565b6040519080825280602002602001820160405280156110b7578160200160208202803683370190505b50815260006020909101529392505050565b92915050565b6001600160a01b03811660009081526003602052604090205460ff1661117c576002805460018082019092557f405787fa12a823e0f2b7631cc41b3ba8828b3321ca811111fa75cd3aa3bb5ace0180546001600160a01b0319166001600160a01b038416908117909155600081815260036020526040808220805460ff1916909417909355915190917fa04aba369684db2ce00a8d46f52e920778d9927f64c2dba967a30cbc5e3b17c391a25b50565b6001600160a01b038116600090815260016020526040812060048101549091036111b157600560028201554260048201555b60008160020154116111f55760405162461bcd60e51b815260206004820152600d60248201526c139bc81b1a5d995cc81b19599d609a1b6044820152606401610294565b600181600201600082825461120a9190611507565b90915550505050565b80356001600160a01b038116811461122a57600080fd5b919050565b60006020828403121561124157600080fd5b61124a82611213565b9392505050565b6000806040838503121561126457600080fd5b61126d83611213565b946020939093013593505050565b60008151808452602080850194506020840160005b838110156112b55781516001600160a01b031687529582019590820190600101611290565b509495945050505050565b60208152600061124a602083018461127b565b600080604083850312156112e657600080fd5b50508035926020909101359150565b604081526000611308604083018561127b565b82810360208481019190915284518083528582019282019060005b8181101561133f57845183529383019391830191600101611323565b5090979650505050505050565b60008060006060848603121561136157600080fd5b61136a84611213565b95602085013595506040909401359392505050565b634e487b7160e01b600052604160045260246000fd5b6000806000606084860312156113aa57600080fd5b6113b384611213565b9250602084013567ffffffffffffffff808211156113d057600080fd5b818601915086601f8301126113e457600080fd5b8135818111156113f6576113f661137f565b604051601f8201601f19908116603f0116810190838211818310171561141e5761141e61137f565b8160405282815289602084870101111561143757600080fd5b826020860160208301376000602084830101528096505050505050604084013590509250925092565b6000602080835260c0830184518285015281850151604085015260408501516060850152606085015160a0608086015281815180845260e0870191508483019350600092505b808310156114c657835182529284019260019290920191908401906114a6565b50608087015160a08701528094505050505092915050565b634e487b7160e01b600052601160045260246000fd5b808201808211156110c9576110c96114de565b818103818111156110c9576110c96114de565b634e487b7160e01b600052603260045260246000fd5b60008261154d57634e487b7160e01b600052601260045260246000fd5b500490565b80820281158282048414176110c9576110c96114de565b60008060006060848603121561157e57600080fd5b83519250602084015191506040840151801515811461159c57600080fd5b809150509250925092565b60018060a01b03841681526000602060606020840152845180606085015260005b818110156115e4578681018301518582016080015282016115c8565b506000608082860101526080601f19601f83011685010192505050826040830152949350505050565b60006020828403121561161f57600080fd5b505191905056fea26469706673582212205972cb740cf3dd173a0a00680d9a780c49241cf23f8cc6f49e983ad5c788bfdc64736f6c63430008180033",
  "linkReferences": {},
  "deployedLinkReferences": {}
}