{
  "_format": "hh-sol-artifact-1",
  "contractName": "MarketplaceHost",
  "sourceName": "contracts/MarketplaceHost.sol",
  "abi": [
    {
      "inputs": [
        {
          "internalType": "address",
          "name": "enclaveContract",
          "type": "address"
        },
        {
          "internalType": "address",
          "name": "_characterNFT",
          "type": "address"
        },
        {
          "internalType": "address",
          "name": "_gameplayManager",
          "type": "address"
        }
      ],
      "stateMutability": "nonpayable",
      "type": "constructor"
    },
    {
      "inputs": [],
      "name": "AutoConfigUnavailable",
      "type": "error"
    },
    {
      "inputs": [],
      "name": "MissingRemoteAddr",
      "type": "error"
    },
    {
      "inputs": [],
      "name": "MissingRemoteChainId",
      "type": "error"
    },
    {
      "inputs": [],
      "name": "SelfCallDisallowed",
      "type": "error"
    },
    {
      "anonymous": false,
      "inputs": [
        {
          "indexed": true,
          "internalType": "address",
          "name": "buyer",
          "type": "address"
        },
        {
          "indexed": false,
          "internalType": "uint256",
          "name": "characterId",
          "type": "uint256"
        }
      ],
      "name": "PurchaseCompleted",
      "type": "event"
    },
    {
      "anonymous": false,
      "inputs": [
        {
          "indexed": true,
          "internalType": "address",
          "name": "buyer",
          "type": "address"
        },
        {
          "indexed": false,
          "internalType": "uint256",
          "name": "characterId",
          "type": "uint256"
        }
      ],
      "name": "PurchaseInitiated",
      "type": "event"
    },
    {
      "inputs": [],
      "name": "characterNFT",
      "outputs": [
        {
          "internalType": "contract CharacterNFT",
          "name": "",
          "type": "address"
        }
      ],
      "stateMutability": "view",
      "type": "function"
    },
    {
      "inputs": [
        {
          "internalType": "address",
          "name": "_sender",
          "type": "address"
        },
        {
          "internalType": "uint64",
          "name": "_senderChainId",
          "type": "uint64"
        },
        {
          "internalType": "bytes",
          "name": "_message",
          "type": "bytes"
        },
        {
          "internalType": "address",
          "name": "",
          "type": "address"
        }
      ],
      "name": "executeMessage",
      "outputs": [
        {
          "internalType": "uint256",
          "name": "",
          "type": "uint256"
        }
      ],
      "stateMutability": "payable",
      "type": "function"
    },
    {
      "inputs": [],
      "name": "gameplayManager",
      "outputs": [
        {
          "internalType": "contract HomeGameplayManager",
          "name": "",
          "type": "address"
        }
      ],
      "stateMutability": "view",
      "type": "function"
    },
    {
      "inputs": [
        {
          "internalType": "uint256",
          "name": "characterId",
          "type": "uint256"
        },
        {
          "internalType": "uint256",
          "name": "pointsRequired",
          "type": "uint256"
        },
        {
          "internalType": "uint256",
          "name": "gemsRequired",
          "type": "uint256"
        }
      ],
      "name": "initiatePurchase",
      "outputs": [],
      "stateMutability": "payable",
      "type": "function"
    }
  ],
  "bytecode": "0x6101006040523480156200001257600080fd5b50604051620015473803806200154783398101604081905262000035916200085b565b82806200004d67736170706869726560c01b620001b9565b816200005982620002ee565b62000065848462000318565b60006001600160a01b0384166200008f57604051635f9997df60e01b815260040160405180910390fd5b82600003620000b157604051630a9e222360e41b815260040160405180910390fd5b600080546001600160a01b0319166001600160a01b03868116919091179091556001849055821660805280151560a052620000eb62000348565b158015620000f857504683145b1562000117576040516336fc0b5f60e21b815260040160405180910390fd5b505050506001600160a01b0385811660c052841660e052505060408051808201909152601081526f636f6d706c657465507572636861736560801b602091820152630a88aaad60e31b600052600281527f39f1019aecc2dc3ef8ad5bf1bf42a212c60479da2205f33098d2e04993bfdee480546001600160401b0319166200037090921b620003dc176001600160401b031691909117905550505050620008f8565b6000466105391480620001cd575046617a69145b15620001e25750641b1bd8d85b60da1b919050565b6000620001ef4662000461565b9150508015620002bb57826262736360e81b036200021d57506a189cd8cb5d195cdd1b995d60aa1b92915050565b826566616e746f6d60d01b036200024757506d19985b9d1bdb4b5d195cdd1b995d60921b92915050565b8267736170706869726560c01b036200027557506f1cd85c1c1a1a5c994b5d195cdd1b995d60821b92915050565b82686176616c616e63686560b81b03620002a257506d6176616c616e6368652d66756a6960901b92915050565b60405163047a7e4960e21b815260040160405180910390fd5b620002c6836200069c565b600003620002e75760405163047a7e4960e21b815260040160405180910390fd5b5090919050565b600081641b1bd8d85b60da1b0362000307575046919050565b62000312826200069c565b92915050565b600081641b1bd8d85b60da1b036200033257508162000312565b60006200033f4662000461565b50949350505050565b600080546080516001600160a01b0390811691161480156200036b575060015446145b905090565b600080806200038284860186620008af565b60e051604051632f6c43a960e21b81526001600160a01b038085166004830152606060248301526000606483015260448201849052939550919350919091169063bdb10ea4906084016020604051808303816000875af1158015620003eb573d6000803e3d6000fd5b505050506040513d601f19601f82011682018060405250810190620004119190620008de565b50816001600160a01b03167f2cdcd36462682c80d338eaafb121846413e1cff6fb13c3b013080acc63e70e4e826040516200044e91815260200190565b60405180910390a2506002949350505050565b600080826001036200048c5750734066d196a423b2b3b8b054f4f40efb47a74e200c92600092509050565b82600a03620004b45750730d71d18126e03646eb09fec929e2ae87b7cae69d92600092509050565b82603803620004dc57507395714818fdd7a5454f73da9c777b3ee6ebaeea6b92600092509050565b8260610362000504575073ad204986d6cb67a5bc76a3cb8974823f43cb9aaa92600192509050565b826089036200052c575073afdb9c40c7144022811f034ee07ce2e110093fe692600092509050565b8260fa0362000554575073ff4e183a0ceb4fa98e63bbf8077b929c8e5a2ba492600092509050565b82610fa2036200057d575073b92d6933a024bcca9a21669a480c236cbc97311092600192509050565b8261050503620005a6575073940daaba3f713abfabd79cdd991466fe698cbe5492600092509050565b82615afe03620005cf5750739bb46d5100d2db4608112026951c9c965b233f4d92600092509050565b82615aff03620005f85750739bb46d5100d2db4608112026951c9c965b233f4d92600192509050565b8261a4b103620006215750733ad9d0648cdaa2426331e894e980d0a5ed16257f92600092509050565b8261a4ba036200064a575073f5c6825015280cdfd0b56903f9f8b5a2233476f592600092509050565b8261a8690362000673575073e9533976c590200e32d95c53f06ae12d292cfc4792600192509050565b8261a86a03620002a25750735a926eeeafc4d217add17e9641e8ce23cd01ad5792600092509050565b60008167657468657265756d60c01b03620006b957506001919050565b81676f7074696d69736d60c01b03620006d45750600a919050565b816262736360e81b03620006ea57506038919050565b816a189cd8cb5d195cdd1b995d60aa1b036200070857506061919050565b81663837b63cb3b7b760c91b036200072257506089919050565b816566616e746f6d60d01b036200073b575060fa919050565b816d19985b9d1bdb4b5d195cdd1b995d60921b036200075d5750610fa2919050565b816836b7b7b73934bb32b960b91b036200077a5750610505919050565b816b617262697472756d2d6f6e6560a01b036200079a575061a4b1919050565b816c617262697472756d2d6e6f766160981b03620007bb575061a4ba919050565b8167736170706869726560c01b03620007d75750615afe919050565b816f1cd85c1c1a1a5c994b5d195cdd1b995d60821b03620007fb5750615aff919050565b81686176616c616e63686560b81b0362000818575061a86a919050565b816d6176616c616e6368652d66756a6960901b036200083a575061a869919050565b506000919050565b6001600160a01b03811681146200085857600080fd5b50565b6000806000606084860312156200087157600080fd5b83516200087e8162000842565b6020850151909350620008918162000842565b6040850151909250620008a48162000842565b809150509250925092565b60008060408385031215620008c357600080fd5b8235620008d08162000842565b946020939093013593505050565b600060208284031215620008f157600080fd5b5051919050565b60805160a05160c05160e051610bed6200095a6000396000818160dd0152610426015260006056015260006102bc0152600081816101a70152818161054d015281816106650152818161070b0152818161079101526108350152610bed6000f3fe60806040526004361061003f5760003560e01c8063384d10ee14610044578063756db320146100955780639c649fdf146100aa578063f58a99e2146100cb575b600080fd5b34801561005057600080fd5b506100787f000000000000000000000000000000000000000000000000000000000000000081565b6040516001600160a01b0390911681526020015b60405180910390f35b6100a86100a336600461087e565b6100ff565b005b6100bd6100b83660046108d2565b61019a565b60405190815260200161008c565b3480156100d757600080fd5b506100787f000000000000000000000000000000000000000000000000000000000000000081565b60408051336020820152908101849052606081018390526080810182905260009060a00160408051601f19818403018152828201909152600f82526e70726f63657373507572636861736560881b6020830152915061015e90826104e6565b5060405184815233907f5a3f196e6fd5c75314ebca5df0bb64433a4da454c48dbcb96161583a3152aa659060200160405180910390a250505050565b6000336001600160a01b037f000000000000000000000000000000000000000000000000000000000000000016146102095760405162461bcd60e51b815260206004820152600d60248201526c4e6f744d65737361676542757360981b60448201526064015b60405180910390fd5b6000546001600160a01b03878116911614801561023157506001548567ffffffffffffffff16145b6102715760405162461bcd60e51b8152602060048201526011602482015270139bdd14995b5bdd19515b991c1bda5b9d607a1b6044820152606401610200565b60006102806004828688610982565b610289916109ac565b9050600061029b602460048789610982565b6102a4916109dc565b90503660006102b6876024818b610982565b915091507f00000000000000000000000000000000000000000000000000000000000000001561033357600454831461031f5760405162461bcd60e51b815260206004820152600b60248201526a57726f6e675365714e756d60a81b6044820152606401610200565b60046000815461032e90610a10565b909155505b6001600160e01b031984166000908152600260205260408120546108748115021767ffffffffffffffff811691821591610373908690869063ffffffff16565b9050600181600281111561038957610389610a29565b0361039e5760029750505050505050506103d3565b60028160028111156103b2576103b2610a29565b036103c75760019750505050505050506103d3565b60009750505050505050505b95945050505050565b600080806103ec84860186610a3f565b604051632f6c43a960e21b81526001600160a01b0380841660048301526060602483015260006064830152604482018390529294509092507f00000000000000000000000000000000000000000000000000000000000000009091169063bdb10ea4906084016020604051808303816000875af1158015610471573d6000803e3d6000fd5b505050506040513d601f19601f820116820180604052508101906104959190610a6b565b50816001600160a01b03167f2cdcd36462682c80d338eaafb121846413e1cff6fb13c3b013080acc63e70e4e826040516104d191815260200190565b60405180910390a26002925050505b92915050565b60008083805190602001206003548460405160200161050793929190610aa8565b6040516020818303038152906040529050600061052482516106f0565b905061052e61082f565b1561064857604051639c649fdf60e01b81526000906001600160a01b037f00000000000000000000000000000000000000000000000000000000000000001690639c649fdf90610588903090469088908390600401610b0a565b6020604051808303816000875af11580156105a7573d6000803e3d6000fd5b505050506040513d601f19601f820116820180604052508101906105cb9190610a6b565b90508060011461060d5760405162461bcd60e51b815260206004820152600d60248201526c2932b1b2b4bb32b922b93937b960991b6044820152606401610200565b81156106425760405160009083156108fc0290849083818181858288f19350505050158015610640573d6000803e3d6000fd5b505b506106d5565b600054600154604051634f9e72ad60e11b81526001600160a01b037f0000000000000000000000000000000000000000000000000000000000000000811693639f3ce55a9386936106a29392909216918890600401610b50565b6000604051808303818588803b1580156106bb57600080fd5b505af11580156106cf573d6000803e3d6000fd5b50505050505b6003600081546106e490610a10565b90915550949350505050565b60006106fa61082f565b1561070757506000919050565b60007f00000000000000000000000000000000000000000000000000000000000000006001600160a01b03166395e911a86040518163ffffffff1660e01b8152600401602060405180830381865afa158015610767573d6000803e3d6000fd5b505050506040513d601f19601f8201168201806040525081019061078b9190610a6b565b905060007f00000000000000000000000000000000000000000000000000000000000000006001600160a01b031663f60bbe2a6040518163ffffffff1660e01b8152600401602060405180830381865afa1580156107ed573d6000803e3d6000fd5b505050506040513d601f19601f820116820180604052508101906108119190610a6b565b905061081d8185610b77565b6108279083610b8e565b949350505050565b600080547f00000000000000000000000000000000000000000000000000000000000000006001600160a01b03908116911614801561086f575060015446145b905090565b61087c610ba1565b565b60008060006060848603121561089357600080fd5b505081359360208301359350604090920135919050565b6001600160a01b03811681146108bf57600080fd5b50565b80356108cd816108aa565b919050565b6000806000806000608086880312156108ea57600080fd5b85356108f5816108aa565b9450602086013567ffffffffffffffff808216821461091357600080fd5b9094506040870135908082111561092957600080fd5b818801915088601f83011261093d57600080fd5b81358181111561094c57600080fd5b89602082850101111561095e57600080fd5b602083019550809450505050610976606087016108c2565b90509295509295909350565b6000808585111561099257600080fd5b8386111561099f57600080fd5b5050820193919092039150565b6001600160e01b031981358181169160048510156109d45780818660040360031b1b83161692505b505092915050565b803560208310156104e057600019602084900360031b1b1692915050565b634e487b7160e01b600052601160045260246000fd5b600060018201610a2257610a226109fa565b5060010190565b634e487b7160e01b600052602160045260246000fd5b60008060408385031215610a5257600080fd5b8235610a5d816108aa565b946020939093013593505050565b600060208284031215610a7d57600080fd5b5051919050565b60005b83811015610a9f578181015183820152602001610a87565b50506000910152565b63ffffffff60e01b8416815282600482015260008251610acf816024850160208701610a84565b91909101602401949350505050565b60008151808452610af6816020860160208601610a84565b601f01601f19169290920160200192915050565b600060018060a01b03808716835267ffffffffffffffff8616602084015260806040840152610b3c6080840186610ade565b915080841660608401525095945050505050565b60018060a01b03841681528260208201526060604082015260006103d36060830184610ade565b80820281158282048414176104e0576104e06109fa565b808201808211156104e0576104e06109fa565b634e487b7160e01b600052605160045260246000fdfea2646970667358221220097d50ed6aada3b0d2a7ba09ef07bf95f0170b0eea3111b4a0b1031ed64803e564736f6c63430008180033",
  "linkReferences": {},
  "deployedLinkReferences": {}
}